:020000040800F2
:10000000E00D0020010100087B14000879130008AE
:100010007914000889020008B532000800000000C9
:10002000000000000000000000000000911800081F
:100030005903000800000000691800089318000820
:100040001B0100081B0100081B0100081B01000820
:100050001B0100081B0100081B0100081B01000810
:100060001B0100081B0100081B0100081B01000800
:100070001B0100081B0100081B0100081B010008F0
:100080001B0100081B0100081B0100081B010008E0
:100090003D3200081B0100081B0100081B0100087D
:1000A0001B0100081B0100081B0100081B010008C0
:1000B0001B0100081B0100081B0100081B010008B0
:1000C0001B0100081B0100081B0100081B010008A0
:1000D0001B0100081B0100081B0100081B01000890
:1000E0001B0100081B0100081B010008DFF80CD0F1
:1000F00000F07EF80048004799370008E00D002026
:100100000648804706480047FEE7FEE7FEE7FEE7B1
:10011000FEE7FEE7FEE7FEE7FEE7FEE7111900084F
:10012000ED000008202A04DB203A21FA02F0002129
:10013000704721FA02F3D040C2F1200291400843F7
:100140001946704740EA01039B0703D009E008C93C
:10015000121F08C0042AFAD203E011F8013B00F88C
:10016000013B521EF9D27047D2B201E000F8012BD8
:10017000491EFBD270470022F6E710B513460A4627
:1001800004461946FFF7F0FF204610BD2DE9F05F49
:100190000546002092469B468846064681464024F6
:1001A0001BE02846414647462246FFF7BBFF534621
:1001B0005A46C01A914110D311461846224600F003
:1001C00029F82D1A67EB01084F462246012000212D
:1001D00000F020F817EB00094E41201EA4F10104A5
:1001E000DFDC484631462A464346BDE8F09F000022
:1001F000064C074D06E0E06840F0010394E8070074
:1002000098471034AC42F6D3FFF774FF0438000867
:1002100024380008202A04DB203A00FA02F10020EA
:1002200070479140C2F1200320FA03F31943904034
:10023000704770B58C1810F8015B15F0070301D1F9
:1002400010F8013B2A1106D110F8012B03E010F839
:10025000016B01F8016B5B1EF9D12B0705D400235C
:10026000521E0DD401F8013BFAE710F8013BCB1AFE
:10027000921C03E013F8015B01F8015B521EF9D5F3
:10028000A142D8D3002070BDFEE704284FF0000043
:10029000704700207047000010B50022054906484D
:1002A00001F0CBFC03490448803901F0C1FC002077
:1002B00010BD00005C0900204C01002010B5144660
:1002C0000146044801F0B4FC2146024801F08AFCD2
:1002D000002010BD4C01002010B50B4614460D49FE
:1002E000D1F8B812496D002904D00BA002F0E4FF48
:1002F000012010BD01461A46064801F09EFC214629
:10030000044801F015FD04460CA002F0D5FF20467C
:1003100010BD00004C0100204344435F5472616EE5
:10032000736D69745F46532072657475726E2055E3
:100330005342445F425553590A0D00004344435F02
:100340005472616E736D69745F46532073656E6499
:10035000204F4B0A0D0000007047704710B50B4846
:100360000168001D0468001D0068084400280BD0C7
:100370000822074901F001F8054920460422BDE89A
:100380001040103100F0F9BF10BD0000E8F7FF1F6A
:100390003A0000202DE9F84F00240023DFF8C49133
:1003A0004FF00F0809F1040A0AF1040B0BF1040ED7
:1003B000D1E00127A7403A40BA4275D1DFF8A8C181
:1003C0004D68A5EB0C0665452BD00DDC032D34D014
:1003D00005DC35B3012D19D0022D2FD11BE0112DD5
:1003E00016D0122D2AD119E0B6F5881F19D006DCD7
:1003F000B6F5803F15D0B6F5801F1FD111E0B6F5D8
:10040000001F0ED0B6F5041F18D10AE0CB6815E026
:10041000CB681B1D12E0CB6808330FE0CB680C33B0
:100420000CE08B6823B1012B04D00823476105E061
:10043000042303E00823076100E00023FF2A01D81A
:10044000054601E000F1040502D84FEA840603E006
:10045000A4F108064FEA86062F6808FA06FC27EA88
:100460000C0703FA06F647EA06072F604D68ED0011
:1004700070D53E4DAE6946F00106AE61AD6905F03E
:10048000010500953A4D24F003067719BE68A507CB
:100490002D0F08FA05FC26EA0C06DFF8D8C06045E7
:1004A00003D14FF0000C17E054E0DFF8CCC06045FA
:1004B00002D14FF0010C0FE0DFF8C0C0604502D15F
:1004C0004FF0020C08E0DFF8B8C0604502D14FF0F1
:1004D000030C01E04FF0040C0CFA05FC4CEA060C8E
:1004E000C7F808C04D68ED0305D5D9F8005015438D
:1004F000C9F8005004E0D9F800509543C9F80050FD
:100500004D68AD0305D5DAF800501543CAF8005020
:1005100004E0DAF800509543CAF800504D68ED0247
:1005200005D5DBF800501543CBF8005004E0DBF8AC
:1005300000509543CBF800504D68AD0205D5DEF86C
:1005400000501543CEF8005004E0DEF8005095430B
:10055000CEF80050641C0A6832FA04F57FF429AF23
:10056000BDE8F88F000401400000111000100240A7
:100570000000014000080140000C01400010014053
:1005800000140140002A01D0016170470904016193
:100590007047000001488068704700006400002038
:1005A000024881680278114481607047640000202D
:1005B00010B50748016841F010010160032000F008
:1005C00077F8002000F006F800F026F8002010BDB3
:1005D0000020024070B504460D4D4FF47A71287822
:1005E000B1FBF0F00B490968B1FBF0F000F0B0FE90
:1005F00008B1012070BD102C07D200222146501EE8
:1006000000F036F86C60002070BD012070BD000065
:10061000640000207000002008B50C48816941F09A
:1006200001018161816901F001010091C16941F01D
:100630008051C161C06900F0805000900449486851
:1006400020F0E06040F00070486008BD00100240FB
:1006500000000140002809DB00F01F020121914049
:100660004009800000F1E020C0F800117047000050
:10067000F0B40D460D4B1B68C3F30223C3F107040E
:10068000042C00D90424191D072901D2002300E0FD
:10069000DB1E012606FA04F1491E294099409E40BE
:1006A000761E16403143F0BC02F016BE0CED00E0A1
:1006B00000F00701054A10684FF6FF03184040EAB2
:1006C0000120034908431060704700000CED00E072
:1006D0000000FA0510B50C0605D501F0070100EB86
:1006E0004110283003E000EB411000F5947099B2FE
:1006F0005AB1012202730181190C4181C28801782B
:1007000004A002F0D9FD002010BD00220273C180B8
:10071000F4E7000048414C5F50434445785F504D3A
:1007200041436F6E66696720696E69742065702049
:100730003D2025752C20706D616164726573732096
:100740003D202558200A00007047000010B50C46D7
:1007500000EB4411D0F86802CA6B214601F080FD1D
:100760002146BDE8104001A002F0A6BD486F737499
:10077000207472616E736D697420646174612C20E1
:1007800065706E756D203D202575200A0000000003
:1007900070B504460D46294606A002F08DFD04EB17
:1007A00045102946D0F83C21D4F86802BDE87040D5
:1007B00001F0DEBD44617461206F75742063616C6B
:1007C0006C6261636B2065702066756E6374696F1F
:1007D0006E2065706E756D203D202575200A000025
:1007E00070B504460B0601F0070004EB40114FF012
:1007F00001024FF0000502D528314A7002E001F5F0
:1008000094714D70087094F82802012808D084F87B
:100810002822206802F0DFFA84F82852002070BDF8
:10082000022070BD70B5044601F00F00626890426E
:1008300001D9012070BD0B0601F0070004EB401147
:100840004FF001024FF0000502D528314A7002E056
:1008500001F594714D708D70087094F8280201288C
:1008600008D084F82822206802F06BFB84F8285214
:10087000002070BD022070BD01F0070100EB4110A7
:10088000D0F8440170472DE9F04104460F0601F00D
:10089000070004EB40114FF001064FF0000502D5B0
:1008A00028314E7002E001F594714D7008700A61B4
:1008B000CB704A7802B1C881022B00D10D7194F837
:1008C0002802012809D084F82862206802F018F96B
:1008D000284684F82852BDE8F0810220FBE770B575
:1008E0000D4605F0070400EB441101F594714A61CF
:1008F0008B610022CA614A700C706A0704D00068DC
:1009000002F07FFB002070BD006802F07AFBF9E77F
:1009100070B504460D46616805F00700884201D9AC
:10092000012070BD29064FF000064FF0010204D5EA
:1009300004EB401128314A7004E004EB451101F545
:1009400094714E708A70087094F82802012807D0BC
:1009500084F82822206802F036FB680702D006E0FF
:10096000022070BD04F50C71206802F0E8FA84F8EA
:100970002862002070BD000070B50D4605F007012B
:1009800000EB411428346261A3610022E26101227C
:100990006270217069070ED00068214602F031FBB9
:1009A000E288217806A002F087FC13A0616902F0BA
:1009B00083FC002070BD0068214602F022FBEFE7B7
:1009C00048414C5F5043445F45505F5472616E73C1
:1009D0006D6974207472616E736D69742C2065701A
:1009E000203D2025752C20706D61616472657373E4
:1009F000203D202558200A0053656E6420737472D0
:100A0000696E673A2025313073200A0010B504461C
:100A1000206802F019FC000402D5204600F02EFDEB
:100A2000206802F011FC40050CD5206830F8441F06
:100A300021F480610180204600F0FAF80021204670
:100A400000F011F9206802F0FFFB400405D5206892
:100A500030F8441F21F480410180206802F0F4FB4B
:100A6000800405D5206830F8441F21F4005101802E
:100A7000206802F0E9FBC00414D5206830F8401F5C
:100A800021F004010180206830F8401F21F00801A6
:100A90000180204600F0DFF8206830F8441F21F480
:100AA00080510180206802F0CFFB00051FD520682F
:100AB00030F8401F41F008010180206830F8441FE1
:100AC00021F400610180206830F8401F41F00401EA
:100AD0000180206802F0B8FBC00405D5206830F81A
:100AE000441F21F480510180204600F0F1F8206875
:100AF00002F0AAFB800508D5206830F8441F21F4D5
:100B000000710180204600F0AAF8206802F09CFBEA
:100B1000C00505D5206830F8441F21F4807101809C
:100B200010BD2DE9F04186B00446002C04D094F8A5
:100B30002902002520B108E0012006B0BDE8F081BF
:100B400084F82852204600F055F8032084F8290242
:100B5000206802F0EDF904F110011422884668467D
:100B6000FFF7F0FA94E80F0002F033F9022718B10A
:100B700084F829720120E0E70021206802F07DFB63
:100B8000002101260BE004EB411028304670017073
:100B9000C181C570056145618561491CC9B2606844
:100BA0008842F0D800210BE004EB411000F594706E
:100BB00045700170C570056145618561491CC9B208
:100BC00060688842F0D8142241466846FFF7BAFAB6
:100BD00094E80F0002F09FF918B184F829720120FF
:100BE000ABE784F8245084F82962206802F091F978
:100BF0000020A2E708B500680B49884212D10B48D3
:100C0000C16941F40001C161C06900F400000090B5
:100C1000002211461420FFF72BFDBDE808401420E8
:100C2000FFF718BD08BD0000005C00400010024046
:100C300070B504460125A068022801D0FFF78DFB9E
:100C40002946D4F8680201F091FCD4F86802BDE8A6
:100C5000704001F04CBCD0F8680201F071BCD0F8D3
:100C6000680201F077BC10B5044694F82802012808
:100C70000BD0012084F8280284F82410206802F0A8
:100C8000FEFA002084F8280210BD022010BDD0F822
:100C9000682200F50C71104601F074BC10B50446D2
:100CA00094F82802012810D0012084F8280201219C
:100CB0002046FFF749FD206802F029F9206802F07C
:100CC000B5FA002084F8280210BD022010BD0000F3
:100CD00010B50446D4F8680201F093FCA06900281E
:100CE00004D00348016841F00601016010BD000016
:100CF00010ED00E02DE9F8430446DFF8F880207895
:100D0000C0075FD00027D8F81C00C0000BD4D8F86B
:100D10001C0040F08050C8F81C00D8F81C0000F0FF
:100D2000805000900127344D2868C00512D42868EF
:100D300040F480702860FFF72DFC064607E0FFF7BF
:100D400029FC801B642802D90320BDE8F8832868A9
:100D5000C005F4D5D8F8200000F4407010B3A18885
:100D600001F4407181421DD0D8F8200020F4407079
:100D7000224901220A6000220A60C8F82000C00748
:100D800010D0FFF707FC054641F2883606E0FFF772
:100D900001FC401BB04201D90320D6E7D8F820005F
:100DA0008007F4D5D8F82000616820F4407008432B
:100DB000C8F82000012F05D1D8F81C0020F0805081
:100DC000C8F81C002078800707D5D8F80400A1686F
:100DD00020F440400843C8F804002078C00607D536
:100DE000D8F80400E16820F480000843C8F8040043
:100DF0000020AAE700100240007000404004424278
:100E00002DE9F04704460D46002C17D0DFF830815D
:100E1000D8F8000000F00700A84211D2D8F800006E
:100E200020F007002843C8F80000D8F8000000F0C0
:100E30000700A84204D00120BDE8F0870120FBE7AD
:100E40002068404E810712D5400703D5706840F4F2
:100E5000E06070602078000703D5706840F460504F
:100E600070607068A16820F0F0000843706020781E
:100E7000C0072CD06068012806D0022809D031684C
:100E800089070BD40120D7E73168890306D40120F4
:100E9000D2E73168890101D40120CDE7716821F0E2
:100EA000030101437160FFF775FB074641F2883982
:100EB00006E0FFF76FFBC01B484501D90320BBE7E5
:100EC0007068616800F00C00B0EB810FF1D1D8F8C8
:100ED000000000F00700A8420ED9D8F8000020F06A
:100EE00007002843C8F80000D8F8000000F0070009
:100EF000A84201D001209FE72078400705D57068FF
:100F0000E16820F4E060084370602078000706D5AF
:100F10007068216920F4605040EAC100706000F000
:100F200019F87168084AC1F30311515CC8400749B8
:100F3000086007480068FFF74DFB00207CE70000D1
:100F40000020024000100240F4370008700000202A
:100F50006800002085B015A090E80E00C068CDE9BB
:100F600002230191049015A000680090144A516872
:100F700001F00C00042804D0082804D0114805B062
:100F800070471148FBE701A8C1F38343C05CC90364
:100F900009D55168C1F340411DF801100A4A504378
:100FA000B0FBF1F0EBE708494843E8E7020304052A
:100FB000060708090A0B0C0D0E0F101001020000A5
:100FC0000010024000127A0000093D002DE9F84FA0
:100FD0000446002C0ED02078D94DC0075ED068683A
:100FE000C0F3810001280BD06868C0F3810002289B
:100FF00003D00CE00120BDE8F88F6868C00306D577
:10100000286880034AD56068A8BB0120F3E76068C0
:10101000B0F5803F11D0A8B1B0F5A02F1BD0286843
:1010200020F480302860286820F4802028606068E0
:1010300030B3FFF7AFFA06461EE0286840F4803070
:101040002860F4E7286820F480302860286820F4BD
:1010500080202860EBE7286840F48020286028681A
:1010600040F480302860E2E7FFF794FA801B6428A0
:1010700002D90320BFE711E028688003F4D50DE012
:10108000FFF788FA064606E0FFF784FA801B64281B
:1010900001D90320AFE728688003F5D42078DFF872
:1010A000A48280074FF0010A4FF0000945D5686817
:1010B00010F00C0F07D06868C0F38100022812D12D
:1010C0006868C0030FD42868800704D52069012808
:1010D00001D001208FE72868616920F0F80040EA1C
:1010E000C100286029E02069B8B1C8F800A0FFF766
:1010F00051FA064606E0FFF74DFA801B022801D997
:10110000032078E728688007F5D52868616920F012
:10111000F80040EAC10028600FE0C8F80090FFF72F
:1011200039FA064606E0FFF735FA801B022801D996
:10113000032060E728688007F5D42078000726D5CB
:101140008148A16999B1C0F800A0FFF723FA0646CB
:1011500006E0FFF71FFA801B022801D903204AE7A7
:10116000686A8007F5D5012000F080FB0FE0C0F829
:101170000090FFF70FFA064606E0FFF70BFA801B18
:10118000022801D9032036E7686A8007F5D4207861
:10119000400773D50026E869C00008D4E86940F02C
:1011A0008050E861E86900F0805000900126DFF887
:1011B0009CB1DBF80000C00514D4DBF8000040F45B
:1011C0008070CBF80000FFF7E5F9074606E0FFF76F
:1011D000E1F9C01B642801D903200CE7DBF800000B
:1011E000C005F4D5E068012812D0B0B105281DD0A3
:1011F000286A20F001002862286A20F00400286292
:10120000E06841F2883B28B3FFF7C4F907461DE0C8
:10121000286A40F001002862F2E7286A20F0010005
:101220002862286A20F004002862E9E7286A40F072
:1012300004002862286A40F001002862E0E7FFF716
:10124000A9F9C01B584501D90320D4E6286A8007B4
:10125000F5D50DE0FFF79EF9074606E0FFF79AF98E
:10126000C01B584501D90320C5E6286A8007F5D47C
:10127000012E03D1E86920F08050E861E069A0B355
:101280006968C1F38101022946D0022805D0C8F857
:101290006090FFF77FF904463AE0C8F86090FFF7E6
:1012A00079F9064606E0FFF775F9801B022801D997
:1012B0000320A0E628688001F5D4206AB0F5803FBD
:1012C00005D16868A16820F4003008436860D4E95B
:1012D00008010843696821F4741108436860C8F87C
:1012E00060A0FFF757F9044607E026E0FFF752F940
:1012F000001B022801D903207DE628688001F5D56E
:101300001BE0FFF747F9001B022801D9032072E612
:1013100028688001F5D410E001280CD06868226AA2
:1013200000F48031914204D1616A00F47010884267
:1013300003D001205FE601205DE600205BE60000AF
:10134000001002400000424280044242007000400F
:1013500010B5401EB0F1807F01D3012010BD4FF0C9
:10136000E02460610F21601701F0B6FF0020A0614A
:1013700007202061002010BDFEE7F0B500230A25FC
:1013800030263727002412E0B5EB107F04D906EB96
:10139000107C01F813C003E007EB107C01F813C0C8
:1013A000000101EB430C8CF801405B1CDBB2934263
:1013B000EAD3F0BD70B586B000240294039404947F
:1013C00005941648816941F020018161816901F02D
:1013D00020010191816941F008018161816901F079
:1013E00008010191816941F004018161806900F087
:1013F000040001900A4E4FF4406500222946304611
:10140000FFF7C0F802950121039104940221059190
:1014100002A93046FEF7BEFF06B070BD00100240C4
:10142000000C014010B500220F49104800F0EFFEFB
:1014300008B1FEF792FF0E490C4801F049F908B1D6
:10144000FEF78BFF0B49094800F0EAFB08B1FEF7F5
:1014500084FF064801F0EEF9002803D0BDE81040F3
:10146000FEF77BBF10BD0000040000204C010020EF
:101470001401002054000020FEE770472DE9F05FC2
:101480000446BFA001F018FF40F68F794FF0060820
:101490004FF4806766E1B0F8441001F00F06AEB378
:1014A00030F826A030F8263032465146BDA001F073
:1014B00003FF5FEA0A407CD5206830F8261001EA75
:1014C000090141F0800120F8261004EB461505F5CE
:1014D0009475287B00286DD02978206830F8212069
:1014E000520468D5B0F85030022202EBC101194411
:1014F00007EB4101415AC1F3090BBBF1000F04D0C6
:101500002A895B46696901F0A2FEDBE0FFE7C906B4
:101510002FD4018848F60F72114041F40041018038
:1015200004F128052068B0F850202B78022101EB47
:10153000C301114407EB4101405AC0F30900E861BF
:1015400069690844686100212046FFF7FFF894F8B4
:10155000240000289ED0A86900289BD194F824007C
:10156000216840F08000A1F84C00002084F824009D
:10157000F8E004F5947501880A0520D5B0F85010FC
:101580002A7808EBC202114407EB4101405AC0F32C
:101590000903EB61EA8804F50C71206801F057FE3D
:1015A0002068018801EA090141F08001018020469C
:1015B00002E0B0E05FE073E0FFF769FBD2E009040E
:1015C000D6D5018801EA090141F080010180206837
:1015D000B0F850102A7808EBC202114407EB410121
:1015E000405AC0F30900E86188B1696979B183B2F2
:1015F000EA88206801F02BFEE9696869084468619F
:1016000073A001F059FE00212046FFF7C1F82068C1
:10161000B0F85010084400F20C40296959B13E2935
:1016200012D84A08C90700D0521C4FF6FF7101EAD0
:101630008221018011E0018821F4F84101800188B4
:1016400041F40041018008E04A09C90600D1521E58
:101650004FF4004141EA82210180206801884BF665
:101660008F72114081F4805181F4005148F2800260
:101670001143018076E02068B0F850102A7808EB1A
:10168000C202114407EB4101415AC1F3090BBBF1FE
:10169000000F23D0EA885B46696901F0D8FD1DE0A0
:1016A000B0F8502008EBC101114407EB4101415A49
:1016B000C1F3090BBBF1000F04D06A895B4669696D
:1016C00001F0C5FD2978206830F8212048F68F7395
:1016D0001A4048F2C0031A4320F82120E869584410
:1016E000E8616869584468615A4648A0296901F070
:1016F000E3FDAB6913B12869584507D94BA001F048
:10170000DBFD29782046FFF743F804E029782046DE
:101710006A69FFF7E4F85FEA0A6023D504EB461034
:101720002830216831F8262048F60F731A4042F419
:10173000004221F826202168B1F8503005780222B5
:1017400002EBC5021A4407EB4202895AC1F30901B0
:10175000C16142690A444261836963B101782046EC
:10176000FFF70AF92068B0F8441009043FF593AE7A
:101770000020BDE8F09F01782046FEF7E7FFF1E783
:1017800053746172742066756E6374696F6E205055
:1017900043445F45505F4953525F48616E646C65D6
:1017A00072200A0077455056616C203D2025752C2B
:1017B000206570696E646578203D2025752C204970
:1017C0006E7374616E6365203D202575200A0000EC
:1017D00043616C6C5F312048414C5F5043445F442F
:1017E0006174614F7574537461676543616C6C62B9
:1017F00061636B206F66205043445F45505F4953DF
:10180000525F48616E646C6572200A004D617870A9
:1018100061636B6574203D2025752C20636F756EA8
:1018200074203D202575200A0000000043616C6C87
:101830005F322048414C5F5043445F446174614FC4
:101840007574537461676543616C6C6261636B208E
:101850006F66205043445F45505F4953525F486173
:101860006E646C6572200A007047000008B5074975
:101870004FF4FA520968B1FBF2F14143009100BF05
:101880000098411E0091FAD208BD000070000020AF
:101890007047FEF785BE30B593B0282109A8FEF742
:1018A0006AFC142104A8FEF766FC0024009401944D
:1018B000029403940121099108040A900B940D915C
:1018C0000225109511904FF42010129009A8FFF7EF
:1018D0007DFB08B1FEF741FD0F20049005950694AD
:1018E0004FF4806007900894012104A8FFF788FA5C
:1018F00008B1FEF732FD1020009080040390684686
:10190000FFF7F8F9002801D0FEF727FD13B030BD2E
:101910000D48016841F00101016041680B4A114026
:10192000416001680A4A11400160016821F4802188
:101930000160416821F4FE0141604FF41F018160A4
:101940000449C00308607047001002400000FFF81F
:10195000FFFFF6FE08ED00E02DE9F041D0F8B822D7
:10196000D0F8C052002A19D00026566501EB810339
:1019700000EB8303DC693CB105EB4115AD6BB4FBB7
:10198000F5F705FB17441CB156650020BDE8F08152
:10199000DE6100231A4600F03DFEF6E70220F5E77F
:1019A00070B505460E46D5F8B8423146284600F0D7
:1019B00022FDE064D5F8B80268B1012E09D00222F8
:1019C000D5F8BC12606CCB6804F14C01984700203C
:1019D00070BD0022F4E7022070BD000070B504461F
:1019E000002619A001F068FC8121204600F02EFCA1
:1019F0000025E5620121204600F028FCC4F86C5166
:101A00008221204600F022FC25648321204600F03C
:101A10001DFC65650321204600F018FCC4F89451B4
:101A20008421204600F012FCA566D4F8B80240B12B
:101A300004F52E74606840688047206801F05BF808
:101A40002560304670BD0000555342445F43444317
:101A50005F4465496E69742073746172740A0D0085
:101A600070B5D0F8B842D0F8BC1200290ED094F866
:101A70004050FF2D0AD0B0F8AC328E6894F8412067
:101A800021462846B047FF2084F84000002070BD62
:101A90000A21018000487047780000208D210180D4
:101AA000004870478400002070B50446002642A01C
:101AB00001F002FC207C012500284CD040230222AA
:101AC0008121204600F0FEFCE56240230222012134
:101AD000204600F0F7FCC4F86C5140230222832119
:101AE000204600F0EFFC65654023022203212046DA
:101AF00000F0E8FCC4F89451082303228221204618
:101B000000F0E0FC2564082303228421204600F035
:101B1000D9FCA5665C2000F0EFFFC4F8B802C8B39A
:101B20000546D4F8BC020068804700206865A865B7
:101B300027A001F0C1FB207C68B34023012120468F
:101B40006A6C00F0CBFC4023032120466A6C00F055
:101B5000C5FC304670BD402302228121204600F0A2
:101B6000B1FCE562402302220121204600F0AAFCDC
:101B7000C4F86C51402302228321204600F0A2FCCD
:101B80006565402302220321204600F09BFCC4F837
:101B90009451B1E700E001E00126DAE7402301219A
:101BA00020466A6C00F09AFC4023032120466A6CB0
:101BB00000F094FCCDE70000555342445F4344439A
:101BC0005F496E69742073746172740A0D000000BD
:101BD0005553422054785374617465203D20300A77
:101BE0000D00000010B5D0F8B822002A16D0037CF2
:101BF00023B1526C02290BD201210AE0526C022956
:101C000001D2012100E00321402300F067FC03E042
:101C10000321402300F062FC002010BD022010BD13
:101C200002460220002902D0C2F8BC1200207047F0
:101C3000D0F8B802416400207047D0F8B80281643F
:101C40000265002070472DE9FC4105460C46D5F899
:101C5000B8720020019000900026207810F06001FA
:101C600030D0202907D02146284600F0CDF80226A2
:101C70003046BDE8FC81E288DAB100060DD5D5F822
:101C8000BC12A3886078D1F808C03946E047E288E2
:101C90003946284600F0DEF8EAE7607887F8400029
:101CA000A07987F84100E2883946284600F0B8F864
:101CB000DEE7D5F8BC12A38860788D680022214643
:101CC000A847D5E7607848B10A2817D00B2825D057
:101CD0002146284600F098F80226C9E795F89C02AC
:101CE000032805D02146284600F08EF80226BFE7DB
:101CF00002226946284600F0ADF8B9E795F89C0243
:101D0000032805D02146284600F07EF80226AFE7DA
:101D1000012201A9284600F09DF8A9E795F89C0248
:101D20000328A5D02146284600F06EF802269FE73A
:101D300010B5D0F8B822002A25D0536D0BB1012080
:101D400010BD01235365136D022902D24FF08101AA
:101D500001E04FF0830101F00F0101EB810100EB85
:101D60008101CB61B2F85010926C8BB202D24FF06D
:101D7000810101E04FF0830100F04CFC03A001F071
:101D80009BFA002010BD022010BD000055534244B4
:101D90005F4344435F5472616E736D697450616355
:101DA0006B6574207472616E736D6974204F4B0A99
:101DB0000D00000010B5D0F8B42252689047002002
:101DC00010BD90F89C22012A05D0022A03D0032AD4
:101DD00001D000F019B84988012904D10021C0F8C8
:101DE000A41200F044B8704710B513460A4600210B
:101DF00000F074FB002010BD10B513460A46002108
:101E000000F008FC002010BD10B5044680212046DB
:101E100000F0E5FB2046BDE81040002100F0DFBBEC
:101E200010B50323C0F89432C0F85C21C0F86021DB
:101E300013460A46002100F051FB002010BD10B5EA
:101E40000521C0F8941200231A46194600F046FBFB
:101E5000002010BD10B50223C0F89432C2610262A6
:101E600013460A46002100F0D5FB002010BD10B536
:101E70000421C0F8941200231A46194600F0CAFB48
:101E8000002010BD10B5002806D00A46054906A05E
:101E900000F08CF9034810BD0A46024902A000F088
:101EA00085F9F7E7DC06002043444320436F6E6664
:101EB0006967000012200880004870472400002055
:101EC00010B5002806D00A46054906A000F06EF9B4
:101ED000034810BD0A46024902A000F067F9F7E77F
:101EE000DC06002043444320496E746572666163DA
:101EF0006500000004200880004870472000002092
:101F000010B50A46024903A000F050F9004810BD80
:101F1000DC06002053544D6963726F656C65637411
:101F2000726F6E696373000010B5002806D00A4610
:101F3000054906A000F03AF9034810BD0A460249D7
:101F400002A000F033F9F7E7DC06002053544D33CC
:101F500032205669727475616C20436F6D506F72D8
:101F60007400000010B51A200880FEF7F7F9014848
:101F700010BD0000380000200A46D188012902D097
:101F80001146FFF741BF90F89C12012906D00229A3
:101F900004D0032909D01146FFF736BF0021816024
:101FA000012200F10801FFF755BF0122011DFFF7D3
:101FB00051BF2DE9F84304460F460020009000264B
:101FC00000257888010A082970D2DFE801F0AB0407
:101FD0000C22ABAB8B9AD4F8B012207C0A6869460D
:101FE00090470646A3E0207C4FF0020840B1D4F8A9
:101FF000B402C16A68468847064686F8018096E0C2
:10200000D4F8B402816A68468847064686F801809B
:102010008DE0C0B206285FD2DFE800F00312213065
:102020003F4FD4F8B002426822B1207C6946904705
:1020300006467CE039462046FFF7E6FE012576E0BD
:10204000D4F8B002826822B1207C694690470646E7
:102050006DE039462046FFF7D7FE012567E0D4F84A
:10206000B002C26822B1207C6946904706465EE015
:1020700039462046FFF7C8FE012558E0D4F8B002E3
:10208000026922B1207C6946904706464FE03946F6
:102090002046FFF7B9FE012549E0D4F8B0024269B5
:1020A0002AB1207C69469047064640E03AE039462E
:1020B0002046FFF7A9FE012539E0D4F8B002826975
:1020C00022B1207C69469047064630E039462046DA
:1020D000FFF79AFE01252AE039462046FFF794FED5
:1020E000012524E0207C28B139462046FFF78CFEEC
:1020F00001251CE0D4F8B402416B684688470646C7
:1021000015E0207C28B139462046FFF77DFE0125E9
:102110000DE0D4F8B402016B6846884706460721F3
:10212000717004E039462046FFF76EFE0125002D50
:1021300012D1BDF8000048B1FA883AB1824200D904
:102140000246009231462046FFF784FEF8880028B8
:1021500002D12046FFF78BFEBDE8F883002102E0A4
:10216000491CC9B2401C0278002AF9D108467047C0
:102170000A4690F89C12012906D0022904D00329AE
:1021800002D01146FFF740BED188022902D0114685
:10219000FFF73ABE0021C160D0F8A41209B10221B4
:1021A000C160022200F10C01FFF754BE70B5044675
:1021B0000D461646002C17D02046FFF7CFFF022110
:1021C00001EB4000308030782870032102206970D4
:1021D000002306E0411CC9B22A54641C481CC0B24A
:1021E0006B542278002AF5D170BD014600200029E9
:1021F00006D0012905D0022905D0032905D00220E7
:10220000704702207047012070470220704710B5C8
:10221000002810D0D0F8B43213B10023C0F8B43283
:1022200009B1C0F8B012012180F89C12027000F0D0
:10223000E7F8002010BD022010BD10B5D0F8C00294
:10224000FEF7F0FABDE81040FFF7CFBF10B5D0F8A9
:10225000C002FEF7C5FABDE81040FFF7C6BF000098
:102260002DE9F04104460E461746002E0AD0D4F858
:10227000B40242691AB194F89C0203285BD0022090
:10228000BDE8F08104F11400D4F89412002502296D
:1022900003D0042941D0E1B343E0D0E903218A42CD
:1022A0000DD9511AC1608AB239462046FFF7A4FD04
:1022B00000231A461946204600F010F931E08068E4
:1022C000B0FBF1F201FB12029AB9884211D3D4F8A3
:1022D000981288420DD2002211462046FFF78CFD4D
:1022E000C4F8985200231A461946204600F0F6F822
:1022F00017E0D4F8B402C16829B194F89C0203280D
:1023000001D1204688478021204600F068F9204608
:1023100000E002E0FFF793FD03E08021204600F09B
:102320005EF994F8A002012808D1204600F0D9F9FE
:1023300084F8A05202E03146204690473A463146A2
:1023400002A000F0B9FF00209AE7000053656E6418
:10235000206F6B2C2065706E756D203D20257520DB
:102360002C2064617461203D202573200A00000048
:1023700070B5044608461146002809D0D4F8B412B6
:102380008A691AB194F89C1203292FD0022070BDDB
:1023900004F5AA70D4F89432032B02D0052B1DD07B
:1023A00027E0D0E903539D420AD9EB1AC3600069C4
:1023B000834200D303469AB22046FFF715FD18E08A
:1023C000D4F8B402016929B194F89C02032801D120
:1023D000204688472046FFF74AFD0AE00020C4F85F
:1023E00094020021204600F0FAF802E0014620465F
:1023F0009047002070BDD0F8C002FEF73DBA000043
:1024000010B504462648C0F86842C4F8C002254901
:102410000160082141600221816000218161C16168
:102420000162FEF77EFB08B1FDF797FF04F53074FB
:102430000022182311462068FEF74CF95823002289
:1024400080212068FEF746F9C02300228121206800
:10245000FEF740F94FF48873002201212068FEF74F
:1024600039F94FF48073002282212068FEF732F997
:102470004FF4A873002283212068FEF72BF94FF454
:10248000C873002203212068FEF724F94FF4E0739B
:10249000002284212068FEF71DF9002010BD0000F5
:1024A00070040020005C00400A06D0F8C00201F071
:1024B0007F0100EB411002D590F82A00704790F898
:1024C0002A01704710B514461A46D0F8C0022346B8
:1024D000FEF7D9F9BDE81040FFF787BE10B5D0F878
:1024E000C002FEF7FCF9BDE81040FFF77EBE70B5F4
:1024F00004460022402311462046FFF7E3FF012552
:10250000C4F858514026C4F8646140230022802159
:102510002046FFF7D7FFA561666284F89C52002031
:10252000C4F894026060C4F8A402D4F8B80228B1D8
:10253000D4F8B4020021426820469047002070BDC4
:1025400090F89C12042903D190F89D1280F89C12F7
:102550000020704710B590F89C12032904D1D0F8E0
:10256000B412C96901B18847002010BD0174002070
:10257000704710B5D0F8C002FEF775FBBDE81040FB
:10258000FFF733BE70B5044604F52A70054600F027
:102590008BF80120C4F89402B4F8AE02C4F8980293
:1025A00094F8A82212F01F000AD001280DD00228AA
:1025B00010D002F08001204600F011F8002070BD1C
:1025C0002946204600F03BF9F8E72946204600F06E
:1025D0005DFAF3E72946204600F066F9EEE710B50C
:1025E000D0F8C002FEF794F9BDE81040FFF7FDBD3A
:1025F00010B5D0F8C002FEF751FBBDE81040FFF760
:10260000F4BD00F5277001784170042101700020AD
:102610007047000070B50D461446D0F8C00222463F
:102620002946FEF7A9F9FFF7E0FD0646324629469E
:1026300004A000F041FE214610A000F03DFE30460F
:1026400070BD0000555342445F4C4C5F5472616E44
:10265000736D6974207472616E736D6974204F4B71
:102660002C2065703D202578202C207374617475B2
:1026700073203D202575200A000000005553424478
:102680005F4C4C5F5472616E736D6974207472613B
:102690006E736D697420737472696E6720253130B2
:1026A00073200A0D000000000A7802704A78427018
:1026B0008A78CB7802EB032242800A794B7902EBCD
:1026C000032282808A79C97902EB0121C180704797
:1026D00002460020002902D0C2F8B412704702203E
:1026E00070470020704770B504468888002821D1C3
:1026F000C888F8B9488880281CD200F07F0594F873
:102700009C0203280DD084F89E5229462046FFF7EC
:1027100030FF2046FFF7ABFB45B1022084F89C0256
:1027200070BD2046BDE87040FFF76EBB012084F805
:102730009C0270BD2046BDE87040FFF765BB10B538
:102740000224D0F8B422002A03D01268904700B9BE
:102750000024204610BD000070B504460E46304DE2
:10276000B1782970012905D931462046BDE870406D
:10277000FFF74ABB94F89C0202280BD0032823D011
:1027800031462046FFF740FB29782046BDE87040DF
:10279000FFF710BB99B16160032084F89C022046CA
:1027A000FFF7CDFF022804D02046BDE87040FFF7B8
:1027B0005EBB31462046BDE87040FFF725BB204692
:1027C000BDE87040FFF753BB91B16068884221D0EB
:1027D000C1B22046FFF7EEFA297861602046FFF784
:1027E000AEFF022810D02046BDE87040FFF73FBB87
:1027F000022084F89C0261602046FFF7DBFA204645
:10280000BDE87040FFF733BB31462046BDE870405D
:10281000FFF7FABA2046BDE87040FFF728BB00007A
:10282000740000204988012903D1C0F8A412FFF7E1
:102830001EBB704710B5FFF7DBFE002010BD10B5C2
:1028400000240A7812F060020CD0202A05D0402A19
:1028500003D0FFF7D9FA204610BDD0F8B422926811
:102860009047F8E74A780A2A1BD2DFE802F01117EE
:102870001A141A08051A0E0BFFF79BFBEBE7FFF77C
:1028800032FFE8E7FFF768FFE5E7FFF775FBE2E7F0
:10289000FFF76EFCDFE7FFF7C5FFDCE7FFF791FA14
:1028A000D9E7FFF7B1FAD6E72DE9F04104460A4629
:1028B00000261179137813F0600011D0202808D079
:1028C000402806D011462046FFF79EFA3046BDE864
:1028D000F081D4F8B4021146836820469847F5E7A2
:1028E000C3F3411001280BD05078002860D0012894
:1028F00037D003280CD011462046FFF785FAE5E7CC
:10290000D4F8B402114683682046BDE8F041184768
:1029100094F89C02022806D0032814D011462046C1
:10292000FFF772FAD2E749B1802907D02046FFF7B6
:1029300056FE80212046FFF752FEC7E7114620468B
:10294000FFF762FAC2E7508838B931B1802904D064
:10295000D08810B92046FFF742FE2046FFF787FADD
:10296000B4E794F89C02022806D0032814D011463C
:102970002046FFF749FAA9E749B1802907D0204648
:10298000FFF72DFE80212046FFF729FE9EE7114626
:102990002046FFF739FA99E75088002896D1480673
:1029A00002D02046FFF749FC2046FFF760FA8DE78A
:1029B00094F89C020027022806D0032824D0114650
:1029C0002046FFF721FA81E731B1802904D0114672
:1029D0002046FFF719FA79E7080607D501F07F00CE
:1029E00000EB800004EB8001143107E001F07F0070
:1029F00000EB800004EB800101F5AA710F60022258
:102A00002046FFF727FA61E708060CD501F00F0012
:102A100000EB800004EB8000806968B91146204615
:102A2000FFF7F2F952E701F00F0000EB800004EB32
:102A30008000D0F8580148B108060CD501F07F009D
:102A400000EB800004EB800514350CE011462046B5
:102A5000FFF7DAF93AE701F07F0000EB800004EBC2
:102A6000800505F5AA7541B1802906D02046FFF7FB
:102A70001BFD20B10120286002E02F6000E02F60E4
:102A8000022229462046FFF7E5F91FE770B5054603
:102A90000C46207810F0600209D0202A07D0402A86
:102AA00005D021462846FFF7AFF9002070BD95F804
:102AB0009C22012A08D0022A06D0032A04D02146EB
:102AC0002846FFF7A1F9F0E7207903280ED8D5F8BA
:102AD000B4022146826828469047E1880029E4D163
:102AE0000028E2D12846FFF7C2F9DEE72146284652
:102AF000FFF78AF9D9E770470048704710040020B3
:102B00002DE9F04F00270D7830F8252048F68F1377
:102B10001A40CB78002B7CD0012B7BD0022B02D02B
:102B2000032B7FD0012748F28004224320F8252080
:102B30000A7830F8223048F68F752B401343234330
:102B400020F822300B7B48F6BF724FF0040A4BF698
:102B50008F7848F2C0064CF2800CEBB30B7830F85B
:102B6000239009EA050948F2801B49EA0B0920F87D
:102B70002390B0F85030034491F8009003EB091310
:102B8000B1F8089029F00109A3F80094B0F850308A
:102B9000034491F800900AEBC90903EB4903B1F82B
:102BA0000A9029F00109A3F800944B78002B71D00A
:102BB0000B7830F823905FEA494907D530F8239025
:102BC00009EA050949EA0C0920F823900B7830F846
:102BD00023905FEA496900E02AE007D530F82390A6
:102BE00009EA050949EA060920F823900B7830F82C
:102BF00023602E4046EA0C0620F82360CB78012B98
:102C000070D00B7830F82350154085F02002224315
:102C100002E004E009E005E020F82320CEE042F4E1
:102C2000007280E742F4C0627DE742F480627AE796
:102C30004B7883B3B0F85030034491F800C003EBF5
:102C40000C13B1F806C02CF0010CA3F800C40B78EB
:102C500030F823C05FEA4C6C07D530F823C00CEA8B
:102C6000050C4CEA060C20F823C0CB78012B09D0C8
:102C7000097830F82130134083F02002224320F8F5
:102C80002120A3E0097830F821301340234320F8B5
:102C900021309BE052E0FFE7B0F8502002440B786F
:102CA0000AEBC30302EB4302CB8823F00103A2F833
:102CB0000034B0F8502002440B78062606EBC3031C
:102CC00002EB430202F580620B6963B13E2B13D81D
:102CD0005E08DB0700D0761C4FF6FF7303EA8623FD
:102CE000138012E063E0138823F4F8431380138801
:102CF00043F40043138008E05E09DB0600D1761E32
:102D00004FF4004343EA862313800A7830F82230D8
:102D10005B0406D530F822302B4043EA0C0320F840
:102D20002230097830F8212002EA080282F4805229
:102D300082F40052224320F8212047E00B7830F83B
:102D400023905FEA494907D530F8239009EA05093D
:102D500049EA0C0920F823900B7830F823C05FEA89
:102D60004C6C07D530F823C00CEA050C4CEA060C75
:102D700020F823C00B7830F823C00CEA050C4CEA8D
:102D8000060C20F823C00B7830F8235005EA08051C
:102D900085F4805585F40055254320F823500978A3
:102DA00030F821301340234320F821300EE00B7817
:102DB00030F823501540254320F82350097830F887
:102DC000212002EA0802224320F821203846BDE8EB
:102DD000F08F002070472DE9F04391F80C904C786B
:102DE0000A7848F6BF764BF68F7748F2800548F2AE
:102DF000C00C4CF2800848F68F73B9F1000F31D047
:102E00007CB330F82240640406D530F822401C40E0
:102E100044EA080420F822400A7830F82240640688
:102E200006D530F822401C4044EA0C0420F8224029
:102E30000A7830F822401C4044EA080420F8224076
:102E40000A7830F8223033402B4320F822300978BA
:102E500030F821203A402A4320F821200020BDE804
:102E6000F08326E094B130F82240640606D530F8AD
:102E700022401C4044EA0C0420F82240097830F833
:102E8000212032402A4320F82120E7E730F8224071
:102E9000640406D530F822401C4044EA080420F8B7
:102EA0002240097830F821203A402A4320F8212096
:102EB000D4E730F82240640406D530F822401C40A4
:102EC00044EA080420F822400A7830F822406406D8
:102ED00006D530F822401C4044EA0C0420F8224079
:102EE0000A7830F822401C4044EA0C0420F82240C2
:102EF0000A7830F822303B402B4320F82230097802
:102F000030F8212032402A4320F82120A6E7002073
:102F100070470020704700B5012120F8401F0021B4
:102F2000018081800182403800F080F9002000BDDE
:102F300030F8401F21F43F410180002070470020FD
:102F4000704730B50A7B002A3BD14A7848F68F7526
:102F500048F28004DAB10A7830F822305B0607D5EF
:102F600030F822302B4048F2C0052B4320F82230A5
:102F7000CA78012A25D0097830F8212048F6BF7395
:102F80001A4082F02002224320F8212019E00A781A
:102F900030F822305B0407D530F822302B404CF259
:102FA00080052B4320F82230097830F821204BF699
:102FB0008F731A4082F4805282F40052224320F828
:102FC0002120002030BD10B54A78097848F28003EE
:102FD000002A0AD030F8212048F6BF74224082F03F
:102FE00010021A4320F8212009E030F821204BF686
:102FF0008F74224082F480521A4320F8212000204E
:1030000010BD2DE9F04305460C46002294F80190CE
:10301000217B2669A0694FF002084FF0060C48F2A8
:103020008007B9F1010F04D0B04262D9801BA061C2
:1030300061E0B04202D9801BA06101E00646A261B6
:1030400079B1207835F8201049061BD5B5F8501015
:1030500029440CEBC00001EB4000A0F80064628939
:103060001AE0B3B2E2882846616900F00FF9B5F8BA
:1030700050002844217808EBC10100EB4100A0F882
:10308000006428E0B5F85010294408EBC00001EBBB
:103090004000A0F800642289B3B22846616900F0BC
:1030A000F5F8607848F68F7210B101280AD012E066
:1030B000207835F82010114048F2C002114325F85D
:1030C000201008E0207835F8201011404CF28002E2
:1030D000114325F82010207835F8201048F6BF72EB
:1030E000114081F0100181F02001394325F82010B2
:1030F00099E00646A2614FF6FF724FF4004319B102
:10310000B9F1000F26D04CE0B5F8500028442178E2
:103110000CEBC10100EB410000F580604EB13E2E8A
:1031200010D87108F30700D0491C02EA8121018000
:103130006CE0018821F4F8410180018841F40041EC
:10314000018063E07109F20600D1491E43EA812142
:1031500001805BE0B5F850002844217808EBC101FC
:1031600000EB410000F5806056B13E2E11D8710889
:103170005FEAC67800D0491C02EA8121018010E094
:10318000018821F4F8410180018841F40041018067
:1031900007E071095FEAC66800D1491E43EA812150
:1031A0000180607810B1012826D02FE0B5F85000DA
:1031B000284421780CEBC10100EB410000F5806050
:1031C0004EB13E2E10D87108F30700D0491C02EA18
:1031D000812101801AE0018821F4F84101800188F1
:1031E00041F40041018011E07109F20600D1491E4D
:1031F00043EA8121018009E0B5F85010481921788F
:103200000CEBC10100EB4100A0F80064207835F818
:1032100020104BF68F72114081F4805181F40051DF
:10322000394325F820100020BDE8F08330F8401F16
:1032300041F43F4101800020704700000148FDF744
:10324000E5BB000070040020B0F84400704710B5E2
:103250005C0800EB420000F58060002C08D030F8DC
:10326000042B0A70120A4A70891C641E002CF6D1C5
:10327000DA0701D00088087010BD002070470029CF
:1032800002D18021A0F84C100020704710B55B1CC3
:103290005B0800EB420000F58060002B09D00A7843
:1032A0004C78891C42EA042220F8042B5B1E002B78
:1032B000F5D110BDFEE700000FB4054B10B503A912
:1032C000044A029800F028F810BC5DF814FB0000D6
:1032D0007D370008000000200907090E002804DBE4
:1032E00000F1E02080F80014704700F00F0000F1BA
:1032F000E02080F8141D704702E008C8121F08C1C2
:10330000002AFAD170477047002001E001C1121F66
:10331000002AFBD1704700002DE9FF4F8DB00F460A
:103320000546002606E025280BD0DDE90F12904760
:103330006D1C761C28780028F5D111B03046BDE808
:10334000F08F0024A246A1460122EC4900E004438C
:1033500015F8013F203B02FA03F00842F7D1287824
:103360002A2810D06FF02F022878A0F13001092907
:1033700014D80AEB8A0102EB410144F0020400EB8D
:10338000010A6D1CF0E701CF5FEA000A03D544F49F
:103390000054CAF1000A44F002046D1C28782E285B
:1033A00017D115F8010F44F004042A280ED06FF04D
:1033B0002F022878A0F1300109290AD809EB8901E8
:1033C00002EB410100EB01096D1CF2E757F8049B89
:1033D0006D1C28786C280FD006DC4C2817D0682884
:1033E0000DD06A2814D104E0742810D07A280FD1A7
:1033F0000DE044F400140AE044F4801401E044F4C5
:1034000040146978814202D104F580146D1C6D1C52
:103410002A786E2A1FD00CDC632A31D004DC002A03
:103420008BD0582A11D1A3E0642A68D0692A0CD124
:1034300065E0732A2ED004DC6F2A73D0702A04D181
:103440009BE0752A6FD0782A6ED01046DDE90F1206
:103450009047761C50E1C4F30250022806D003289E
:1034600009D0042801CF09D0066045E101CFF1174A
:10347000C0E9006140E101CF06803DE106703BE11B
:1034800017F8040B8DF8000000208DF80100EB46C2
:10349000012003E057F804BB4FF0FF3061074FF005
:1034A000000102D40DE008F10101884649450FDA18
:1034B0008045F8DB1BF808100029F4D108E008F17A
:1034C000010188468142FADB1BF808100029F6D179
:1034D000DDE90F23AAEB08008146214600F036F90A
:1034E000304400EB080604E0DDE90F121BF8010B85
:1034F0009047B8F10108F7D221464846F7E00A2183
:10350000C4F302534FF0000B0891022B04D001CFFB
:10351000C117032B09D00AE0FF1D27F00707F7E8C2
:10352000020108E032E01FE020E000B2C117042BE6
:1035300001D140B2C117031E71F1000307DA4FF049
:10354000000CD0EB0C006CEB01012D2302E02305F5
:1035500004D52B238DF82430012303E0E30701D0A9
:103560002023F7E7984658E00A2110E010210EE0EA
:1035700010204FF0000B08900CE010214FF0000BD2
:1035800044F004044FF00809089103E008214FF0CB
:10359000000B0891C4F30253022B04D001CF002189
:1035A000032B06D006E0FF1D27F00707F7E802010E
:1035B00003E080B2042B00D1C0B24FF00008230713
:1035C0002BD5702A07D0DDF820C08CF0100C5CEAF7
:1035D0000B0C05D00EE040238DF82430012308E0C9
:1035E00050EA010306D030238DF824308DF82520D1
:1035F00002239846DDF820C08CF0080C5CEA0B0C26
:103600000BD150EA010301D1630706D530238DF8B1
:1036100024304FF00108A9F10109582A04D038A23A
:103620000B9208AA0A920BE03AA2F9E75B46089AC5
:10363000FCF7ACFD0B9B9B5C0A9A521E0A9213701E
:1036400050EA0102F2D10A98ADEB000000F1200B24
:10365000600702D524F4803401E04FF00109D94518
:1036600002DDA9EB0B0000E0002000EB0B01414460
:103670000890AAEB010AE00306D4DDE90F232146F6
:10368000504600F063F806444FF0000908E009A92D
:1036900011F80900DDE90F12904709F10109761CC4
:1036A000C145F4DBE0030CD5DDE90F23214650468C
:1036B00000F04CF8064404E0DDE90F12302090479A
:1036C000761C0899481E08900029F5DC08E00A9845
:1036D0000A990078491C0A91DDE90F129047761C7F
:1036E000BBF10001ABF1010BF1DC21465046DDE9F5
:1036F0000F2300F019F806446D1C1BE60928010091
:103700003031323334353637383961626364656657
:103710000000000030313233343536373839414219
:1037200043444546000000002DE9F04104460025D1
:103730001E461746880404D405E039462020B047C9
:103740006D1C641EF9D52846BDE8F0812DE9F041D5
:10375000044600251E469046C80301D5302700E0E8
:103760002027880404D505E041463846B0476D1C43
:10377000641EF9D52846BDE8F081000005490968B6
:10378000C90105D54FF060410A68002AFCD00870D5
:1037900070470000FCED00E0FCF70AFFFEF77BF845
:1037A000FDF708FE0E4D4FF400602860FDF73AFE6D
:1037B0002E150C4CAF052E600020401CA042FCD3FF
:1037C0000222092108A0FCF787FD2F600020401C81
:1037D000A042FCD30222092103A0FCF77DFDEAE709
:1037E000100C0140C0CF6A00746573747573620D6C
:1037F0000A000000000000000000000001020304B5
:103800000607080924380008000000204C010000C9
:1038100032020008F43800084C010020940C00002B
:10382000083300084113B51E1B08F50413011F1BC4
:103830000829041A65041A85101AC104170403091B
:10384000041201100A02EF020140830440572602CD
:1038500001020301031A1A031399021B0893041AA5
:103860008B041ABD04192F1182105324F4130A0675
:1038700032022A401C1409028D13040115C03208BB
:103880000B1B0202612309041A01091113052416F6
:103890001001052401100901042402020524061761
:1038A0000107058203081B10093133020A2E0705A0
:1038B000010240072A81071B080B413942DA024204
:1038C0005A03424E0203070584426A03424A0342F6
:1038D0002A83073113A91A1408DD191408471C425A
:1038E000081A61101A59101AA104C11A9D18690406
:0438F0001A91040025
:04000005080000ED02
:00000001FF
